{
  "contractName": "MusicChain",
  "abi": [
    {
      "constant": true,
      "inputs": [
        {
          "name": "",
          "type": "bytes32"
        }
      ],
      "name": "getIndiPrice",
      "outputs": [
        {
          "name": "",
          "type": "uint256"
        }
      ],
      "payable": false,
      "stateMutability": "view",
      "type": "function"
    },
    {
      "constant": true,
      "inputs": [
        {
          "name": "",
          "type": "bytes32"
        },
        {
          "name": "",
          "type": "address"
        }
      ],
      "name": "bought",
      "outputs": [
        {
          "name": "",
          "type": "bool"
        }
      ],
      "payable": false,
      "stateMutability": "view",
      "type": "function"
    },
    {
      "constant": true,
      "inputs": [
        {
          "name": "",
          "type": "address"
        },
        {
          "name": "",
          "type": "uint256"
        }
      ],
      "name": "media_by_owner",
      "outputs": [
        {
          "name": "",
          "type": "bytes32"
        }
      ],
      "payable": false,
      "stateMutability": "view",
      "type": "function"
    },
    {
      "constant": true,
      "inputs": [
        {
          "name": "",
          "type": "address"
        },
        {
          "name": "",
          "type": "uint256"
        }
      ],
      "name": "media_boughtby",
      "outputs": [
        {
          "name": "",
          "type": "bytes32"
        }
      ],
      "payable": false,
      "stateMutability": "view",
      "type": "function"
    },
    {
      "constant": true,
      "inputs": [
        {
          "name": "",
          "type": "bytes32"
        },
        {
          "name": "",
          "type": "address"
        }
      ],
      "name": "link_sent",
      "outputs": [
        {
          "name": "",
          "type": "bool"
        }
      ],
      "payable": false,
      "stateMutability": "view",
      "type": "function"
    },
    {
      "constant": true,
      "inputs": [
        {
          "name": "",
          "type": "bytes32"
        }
      ],
      "name": "getMedia",
      "outputs": [
        {
          "name": "id",
          "type": "bytes32"
        },
        {
          "name": "owner",
          "type": "address"
        },
        {
          "name": "title",
          "type": "string"
        },
        {
          "name": "price_indi",
          "type": "uint256"
        },
        {
          "name": "price_comp",
          "type": "uint256"
        }
      ],
      "payable": false,
      "stateMutability": "view",
      "type": "function"
    },
    {
      "constant": true,
      "inputs": [
        {
          "name": "",
          "type": "address"
        },
        {
          "name": "",
          "type": "bytes32"
        }
      ],
      "name": "links",
      "outputs": [
        {
          "name": "",
          "type": "bytes32"
        }
      ],
      "payable": false,
      "stateMutability": "view",
      "type": "function"
    },
    {
      "constant": true,
      "inputs": [
        {
          "name": "",
          "type": "address"
        }
      ],
      "name": "num_bought",
      "outputs": [
        {
          "name": "",
          "type": "int256"
        }
      ],
      "payable": false,
      "stateMutability": "view",
      "type": "function"
    },
    {
      "constant": true,
      "inputs": [
        {
          "name": "",
          "type": "address"
        }
      ],
      "name": "users",
      "outputs": [
        {
          "name": "",
          "type": "uint256"
        }
      ],
      "payable": false,
      "stateMutability": "view",
      "type": "function"
    },
    {
      "constant": true,
      "inputs": [
        {
          "name": "",
          "type": "bytes32"
        }
      ],
      "name": "num_mybought",
      "outputs": [
        {
          "name": "",
          "type": "int256"
        }
      ],
      "payable": false,
      "stateMutability": "view",
      "type": "function"
    },
    {
      "constant": true,
      "inputs": [],
      "name": "num_media",
      "outputs": [
        {
          "name": "",
          "type": "int256"
        }
      ],
      "payable": false,
      "stateMutability": "view",
      "type": "function"
    },
    {
      "constant": true,
      "inputs": [
        {
          "name": "",
          "type": "uint256"
        }
      ],
      "name": "media_list",
      "outputs": [
        {
          "name": "",
          "type": "bytes32"
        }
      ],
      "payable": false,
      "stateMutability": "view",
      "type": "function"
    },
    {
      "constant": true,
      "inputs": [
        {
          "name": "",
          "type": "address"
        }
      ],
      "name": "num_owned",
      "outputs": [
        {
          "name": "",
          "type": "int256"
        }
      ],
      "payable": false,
      "stateMutability": "view",
      "type": "function"
    },
    {
      "constant": true,
      "inputs": [
        {
          "name": "",
          "type": "bytes32"
        }
      ],
      "name": "getCompPrice",
      "outputs": [
        {
          "name": "",
          "type": "uint256"
        }
      ],
      "payable": false,
      "stateMutability": "view",
      "type": "function"
    },
    {
      "constant": true,
      "inputs": [
        {
          "name": "",
          "type": "bytes32"
        },
        {
          "name": "",
          "type": "uint256"
        }
      ],
      "name": "mybought",
      "outputs": [
        {
          "name": "",
          "type": "address"
        }
      ],
      "payable": false,
      "stateMutability": "view",
      "type": "function"
    },
    {
      "inputs": [],
      "payable": false,
      "stateMutability": "nonpayable",
      "type": "constructor"
    },
    {
      "anonymous": false,
      "inputs": [
        {
          "indexed": false,
          "name": "title",
          "type": "string"
        },
        {
          "indexed": false,
          "name": "price_indi",
          "type": "uint256"
        },
        {
          "indexed": false,
          "name": "price_comp",
          "type": "uint256"
        }
      ],
      "name": "AddedMedia",
      "type": "event"
    },
    {
      "constant": false,
      "inputs": [
        {
          "name": "i",
          "type": "uint256"
        }
      ],
      "name": "setRole",
      "outputs": [],
      "payable": false,
      "stateMutability": "nonpayable",
      "type": "function"
    },
    {
      "constant": false,
      "inputs": [
        {
          "name": "title",
          "type": "string"
        },
        {
          "name": "indi_price",
          "type": "uint256"
        },
        {
          "name": "comp_price",
          "type": "uint256"
        },
        {
          "name": "stakeholders",
          "type": "address[]"
        },
        {
          "name": "stakes",
          "type": "uint256[]"
        }
      ],
      "name": "addEntry",
      "outputs": [
        {
          "name": "",
          "type": "bytes32"
        }
      ],
      "payable": false,
      "stateMutability": "nonpayable",
      "type": "function"
    },
    {
      "constant": false,
      "inputs": [
        {
          "name": "media_id",
          "type": "bytes32"
        }
      ],
      "name": "buy",
      "outputs": [],
      "payable": true,
      "stateMutability": "payable",
      "type": "function"
    },
    {
      "constant": false,
      "inputs": [
        {
          "name": "recipient",
          "type": "address"
        },
        {
          "name": "media_id",
          "type": "bytes32"
        },
        {
          "name": "link",
          "type": "bytes32"
        }
      ],
      "name": "sendLink",
      "outputs": [],
      "payable": false,
      "stateMutability": "nonpayable",
      "type": "function"
    }
  ],
  "bytecode": "0x60606040526000600855341561001457600080fd5b611c63806100236000396000f300606060405260043610610106576000357c0100000000000000000000000000000000000000000000000000000000900463ffffffff1680620383961461010b57806303d300571461014657806306f5197f146101995780632ab133b1146101f7578063356f3b8a14610255578063531af941146102b35780636c694e471461031157806378932c2f146104015780637c6b399b14610463578063953fde3a1461056e5780639c9a1061146105bb578063a87430ba146105d7578063cda825b014610624578063db84e90214610647578063dd3e09b314610682578063df33fef6146106ab578063e515f555146106ea578063fbf299d614610737578063fc949ee314610772575b600080fd5b341561011657600080fd5b6101306004808035600019169060200190919050506107e2565b6040518082815260200191505060405180910390f35b341561015157600080fd5b610197600480803573ffffffffffffffffffffffffffffffffffffffff1690602001909190803560001916906020019091908035600019169060200190919050506107fa565b005b34156101a457600080fd5b6101dd60048080356000191690602001909190803573ffffffffffffffffffffffffffffffffffffffff16906020019091905050610ba6565b604051808215151515815260200191505060405180910390f35b341561020257600080fd5b610237600480803573ffffffffffffffffffffffffffffffffffffffff16906020019091908035906020019091905050610bd5565b60405180826000191660001916815260200191505060405180910390f35b341561026057600080fd5b610295600480803573ffffffffffffffffffffffffffffffffffffffff16906020019091908035906020019091905050610c06565b60405180826000191660001916815260200191505060405180910390f35b34156102be57600080fd5b6102f760048080356000191690602001909190803573ffffffffffffffffffffffffffffffffffffffff16906020019091905050610c37565b604051808215151515815260200191505060405180910390f35b341561031c57600080fd5b610336600480803560001916906020019091905050610c66565b6040518086600019166000191681526020018573ffffffffffffffffffffffffffffffffffffffff1673ffffffffffffffffffffffffffffffffffffffff16815260200180602001848152602001838152602001828103825285818151815260200191508051906020019080838360005b838110156103c25780820151818401526020810190506103a7565b50505050905090810190601f1680156103ef5780820380516001836020036101000a031916815260200191505b50965050505050505060405180910390f35b341561040c57600080fd5b610445600480803573ffffffffffffffffffffffffffffffffffffffff1690602001909190803560001916906020019091905050610d54565b60405180826000191660001916815260200191505060405180910390f35b341561046e57600080fd5b610550600480803590602001908201803590602001908080601f016020809104026020016040519081016040528093929190818152602001838380828437820191505050505050919080359060200190919080359060200190919080359060200190820180359060200190808060200260200160405190810160405280939291908181526020018383602002808284378201915050505050509190803590602001908201803590602001908080602002602001604051908101604052809392919081815260200183836020028082843782019150505050505091905050610d79565b60405180826000191660001916815260200191505060405180910390f35b341561057957600080fd5b6105a5600480803573ffffffffffffffffffffffffffffffffffffffff169060200190919050506112f1565b6040518082815260200191505060405180910390f35b6105d5600480803560001916906020019091905050611309565b005b34156105e257600080fd5b61060e600480803573ffffffffffffffffffffffffffffffffffffffff1690602001909190505061170d565b6040518082815260200191505060405180910390f35b341561062f57600080fd5b6106456004808035906020019091905050611725565b005b341561065257600080fd5b61066c60048080356000191690602001909190505061176c565b6040518082815260200191505060405180910390f35b341561068d57600080fd5b610695611784565b6040518082815260200191505060405180910390f35b34156106b657600080fd5b6106cc600480803590602001909190505061178a565b60405180826000191660001916815260200191505060405180910390f35b34156106f557600080fd5b610721600480803573ffffffffffffffffffffffffffffffffffffffff169060200190919050506117ae565b6040518082815260200191505060405180910390f35b341561074257600080fd5b61075c6004808035600019169060200190919050506117c6565b6040518082815260200191505060405180910390f35b341561077d57600080fd5b6107a06004808035600019169060200190919080359060200190919050506117de565b604051808273ffffffffffffffffffffffffffffffffffffffff1673ffffffffffffffffffffffffffffffffffffffff16815260200191505060405180910390f35b600c6020528060005260406000206000915090505481565b600080600a6000856000191660001916815260200190815260200160002060008082015481600001906000191690556001820160009054906101000a900473ffffffffffffffffffffffffffffffffffffffff168160010160006101000a81548173ffffffffffffffffffffffffffffffffffffffff021916908373ffffffffffffffffffffffffffffffffffffffff160217905550600282018160020190805460018160011615610100020316600290046108b792919061182c565b50600382015481600301556004820154816004015560058201816005019080546108e29291906118b3565b5060068201816006019080546108f9929190611905565b50905050600060010160009054906101000a900473ffffffffffffffffffffffffffffffffffffffff1673ffffffffffffffffffffffffffffffffffffffff163373ffffffffffffffffffffffffffffffffffffffff1614151561095c57600080fd5b82601260008773ffffffffffffffffffffffffffffffffffffffff1673ffffffffffffffffffffffffffffffffffffffff1681526020019081526020016000206000866000191660001916815260200190815260200160002081600019169055506002600760008773ffffffffffffffffffffffffffffffffffffffff1673ffffffffffffffffffffffffffffffffffffffff168152602001908152602001600020541415610a12576000600301549150610a64565b6003600760008773ffffffffffffffffffffffffffffffffffffffff1673ffffffffffffffffffffffffffffffffffffffff168152602001908152602001600020541415610a635760006004015491505b5b600090505b600060050180549050811015610b2e57600060050181815481101515610a8b57fe5b906000526020600020900160009054906101000a900473ffffffffffffffffffffffffffffffffffffffff1673ffffffffffffffffffffffffffffffffffffffff166108fc606484600060060185815481101515610ae557fe5b90600052602060002090015402811515610afb57fe5b049081150290604051600060405180830381858888f193505050501515610b2157600080fd5b8080600101915050610a69565b600160136000866000191660001916815260200190815260200160002060008773ffffffffffffffffffffffffffffffffffffffff1673ffffffffffffffffffffffffffffffffffffffff16815260200190815260200160002060006101000a81548160ff0219169083151502179055505050505050565b600b6020528160005260406000206020528060005260406000206000915091509054906101000a900460ff1681565b601060205281600052604060002081815481101515610bf057fe5b9060005260206000209001600091509150505481565b601460205281600052604060002081815481101515610c2157fe5b9060005260206000209001600091509150505481565b60136020528160005260406000206020528060005260406000206000915091509054906101000a900460ff1681565b600a6020528060005260406000206000915090508060000154908060010160009054906101000a900473ffffffffffffffffffffffffffffffffffffffff1690806002018054600181600116156101000203166002900480601f016020809104026020016040519081016040528092919081815260200182805460018160011615610100020316600290048015610d3e5780601f10610d1357610100808354040283529160200191610d3e565b820191906000526020600020905b815481529060010190602001808311610d2157829003601f168201915b5050505050908060030154908060040154905085565b6012602052816000526040600020602052806000526040600020600091509150505481565b6000806001600760003373ffffffffffffffffffffffffffffffffffffffff1673ffffffffffffffffffffffffffffffffffffffff16815260200190815260200160002054141515610dca57600080fd5b60e06040519081016040528033898989604051808573ffffffffffffffffffffffffffffffffffffffff1673ffffffffffffffffffffffffffffffffffffffff166c0100000000000000000000000002815260140184805190602001908083835b602083101515610e505780518252602082019150602081019050602083039250610e2b565b6001836020036101000a03801982511681845116808217855250505050505090500183815260200182815260200194505050505060405180910390206000191681526020013373ffffffffffffffffffffffffffffffffffffffff16815260200188815260200187815260200186815260200185815260200184815250600080820151816000019060001916905560208201518160010160006101000a81548173ffffffffffffffffffffffffffffffffffffffff021916908373ffffffffffffffffffffffffffffffffffffffff1602179055506040820151816002019080519060200190610f41929190611957565b50606082015181600301556080820151816004015560a0820151816005019080519060200190610f729291906119d7565b5060c0820151816006019080519060200190610f8f929190611a61565b509050506000600a6000806000015460001916600019168152602001908152602001600020600082015481600001906000191690556001820160009054906101000a900473ffffffffffffffffffffffffffffffffffffffff168160010160006101000a81548173ffffffffffffffffffffffffffffffffffffffff021916908373ffffffffffffffffffffffffffffffffffffffff1602179055506002820181600201908054600181600116156101000203166002900461105292919061182c565b506003820154816003015560048201548160040155600582018160050190805461107d9291906118b3565b506006820181600601908054611094929190611905565b50905050600980548060010182816110ac9190611aae565b91600052602060002090016000806000015490919091509060001916905550600160086000828254019250508190555085600c60008060000154600019166000191681526020019081526020016000208190555084600d600080600001546000191660001916815260200190815260200160002081905550601060003373ffffffffffffffffffffffffffffffffffffffff1673ffffffffffffffffffffffffffffffffffffffff16815260200190815260200160002090508080548060010182816111789190611aae565b9160005260206000209001600080600001549091909150906000191690555080601060003373ffffffffffffffffffffffffffffffffffffffff1673ffffffffffffffffffffffffffffffffffffffff1681526020019081526020016000209080546111e5929190611ada565b506001601160003373ffffffffffffffffffffffffffffffffffffffff1673ffffffffffffffffffffffffffffffffffffffff168152602001908152602001600020600082825401925050819055507f1ef7dbcb327bbb24b375f6136307adcee71e5d97c4c563b5f6e92d5c117f3b5b8787876040518080602001848152602001838152602001828103825285818151815260200191508051906020019080838360005b838110156112a4578082015181840152602081019050611289565b50505050905090810190601f1680156112d15780820380516001836020036101000a031916815260200191505b5094505050505060405180910390a1600080015491505095945050505050565b60156020528060005260406000206000915090505481565b6000806000600a6000856000191660001916815260200190815260200160002092506001600760003373ffffffffffffffffffffffffffffffffffffffff1673ffffffffffffffffffffffffffffffffffffffff16815260200190815260200160002054141561137857600080fd5b6002600760003373ffffffffffffffffffffffffffffffffffffffff1673ffffffffffffffffffffffffffffffffffffffff168152602001908152602001600020541480156113cb575082600301543414155b156113d557600080fd5b6003600760003373ffffffffffffffffffffffffffffffffffffffff1673ffffffffffffffffffffffffffffffffffffffff16815260200190815260200160002054148015611428575082600401543414155b1561143257600080fd5b600b6000856000191660001916815260200190815260200160002060003373ffffffffffffffffffffffffffffffffffffffff1673ffffffffffffffffffffffffffffffffffffffff16815260200190815260200160002060009054906101000a900460ff16156114a257600080fd5b600e6000856000191660001916815260200190815260200160002091508180548060010182816114d29190611b2c565b9160005260206000209001600033909190916101000a81548173ffffffffffffffffffffffffffffffffffffffff021916908373ffffffffffffffffffffffffffffffffffffffff1602179055505081600e6000866000191660001916815260200190815260200160002090805461154b929190611b58565b506001600f600086600019166000191681526020019081526020016000205401600f60008660001916600019168152602001908152602001600020819055506001600b6000866000191660001916815260200190815260200160002060003373ffffffffffffffffffffffffffffffffffffffff1673ffffffffffffffffffffffffffffffffffffffff16815260200190815260200160002060006101000a81548160ff021916908315150217905550601460003373ffffffffffffffffffffffffffffffffffffffff1673ffffffffffffffffffffffffffffffffffffffff168152602001908152602001600020905080805480600101828161164f9190611aae565b91600052602060002090016000869091909150906000191690555080601460003373ffffffffffffffffffffffffffffffffffffffff1673ffffffffffffffffffffffffffffffffffffffff1681526020019081526020016000209080546116b8929190611ada565b506001601560003373ffffffffffffffffffffffffffffffffffffffff1673ffffffffffffffffffffffffffffffffffffffff1681526020019081526020016000206000828254019250508190555050505050565b60076020528060005260406000206000915090505481565b80600760003373ffffffffffffffffffffffffffffffffffffffff1673ffffffffffffffffffffffffffffffffffffffff1681526020019081526020016000208190555050565b600f6020528060005260406000206000915090505481565b60085481565b60098181548110151561179957fe5b90600052602060002090016000915090505481565b60116020528060005260406000206000915090505481565b600d6020528060005260406000206000915090505481565b600e602052816000526040600020818154811015156117f957fe5b90600052602060002090016000915091509054906101000a900473ffffffffffffffffffffffffffffffffffffffff1681565b828054600181600116156101000203166002900490600052602060002090601f016020900481019282601f1061186557805485556118a2565b828001600101855582156118a257600052602060002091601f016020900482015b828111156118a1578254825591600101919060010190611886565b5b5090506118af9190611baa565b5090565b8280548282559060005260206000209081019282156118f45760005260206000209182015b828111156118f35782548255916001019190600101906118d8565b5b5090506119019190611bcf565b5090565b8280548282559060005260206000209081019282156119465760005260206000209182015b8281111561194557825482559160010191906001019061192a565b5b5090506119539190611baa565b5090565b828054600181600116156101000203166002900490600052602060002090601f016020900481019282601f1061199857805160ff19168380011785556119c6565b828001600101855582156119c6579182015b828111156119c55782518255916020019190600101906119aa565b5b5090506119d39190611baa565b5090565b828054828255906000526020600020908101928215611a50579160200282015b82811115611a4f5782518260006101000a81548173ffffffffffffffffffffffffffffffffffffffff021916908373ffffffffffffffffffffffffffffffffffffffff160217905550916020019190600101906119f7565b5b509050611a5d9190611bcf565b5090565b828054828255906000526020600020908101928215611a9d579160200282015b82811115611a9c578251825591602001919060010190611a81565b5b509050611aaa9190611baa565b5090565b815481835581811511611ad557818360005260206000209182019101611ad49190611c12565b5b505050565b828054828255906000526020600020908101928215611b1b5760005260206000209182015b82811115611b1a578254825591600101919060010190611aff565b5b509050611b289190611c12565b5090565b815481835581811511611b5357818360005260206000209182019101611b529190611baa565b5b505050565b828054828255906000526020600020908101928215611b995760005260206000209182015b82811115611b98578254825591600101919060010190611b7d565b5b509050611ba69190611bcf565b5090565b611bcc91905b80821115611bc8576000816000905550600101611bb0565b5090565b90565b611c0f91905b80821115611c0b57600081816101000a81549073ffffffffffffffffffffffffffffffffffffffff021916905550600101611bd5565b5090565b90565b611c3491905b80821115611c30576000816000905550600101611c18565b5090565b905600a165627a7a72305820b46b9b5bf2ab8cab0cefa3dbb29c379c8a87f04ed2f7691b0b14c7fae9b9b2430029",
  "source": "pragma solidity ^0.4.0;\ncontract MusicChain {\n    \n    Media md;\n    mapping (address => uint) public users;//1 -> creator, 2 -> indi, 3 -> company\n    int public num_media = 0;\n    bytes32[] public media_list; //stores all medias in list \n    mapping (bytes32 => Media) public getMedia; //between hash of media and media\n    mapping (bytes32 => mapping (address => bool)) public bought;\n    mapping (bytes32 => uint) public getIndiPrice;\n    mapping (bytes32 => uint) public getCompPrice;\n    mapping (bytes32 => address[]) public mybought;\n    mapping (bytes32 => int) public num_mybought;\n    mapping (address => bytes32[]) public media_by_owner;\n    mapping (address => int) public num_owned;\n    mapping (address => mapping(bytes32 => bytes32)) public links;  //Media Hash and the link uploaded by creator\n    mapping (bytes32 => mapping(address => bool)) public link_sent;\n    mapping (address => bytes32[]) public media_boughtby;\n    mapping (address => int) public num_bought;\n    \n    event AddedMedia(\n        string title,\n        uint price_indi,\n        uint price_comp\n    );\n    \n    struct Media{\n        bytes32 id;\n        address owner;\n        string title;\n        uint price_indi;\n        uint price_comp;\n        address[] stakeholders;\n        uint[] stakes;\n    }\n    \n    function MusicChain() public{\n    }\n    \n    function setRole(uint i) public {\n        users[msg.sender] = i;\n    }\n    \n    function addEntry(string title, uint indi_price,uint comp_price, address[] stakeholders, uint[] stakes) public returns (bytes32){\n        if (users[msg.sender]!=1) revert();\n        md = Media(keccak256(msg.sender,title, indi_price,comp_price), msg.sender, title ,indi_price,comp_price, stakeholders, stakes);\n        getMedia[md.id] = md;\n        media_list.push(md.id);\n        num_media +=1;\n        getIndiPrice[md.id] = indi_price;\n        getCompPrice[md.id] = comp_price;\n        bytes32[] k = media_by_owner[msg.sender];\n        k.push(md.id);\n        media_by_owner[msg.sender] = k;\n        num_owned[msg.sender]+=1;\n        AddedMedia(title, indi_price, comp_price);\n        return md.id;\n    }\n\n    function buy(bytes32 media_id) payable public {\n        Media storage md1 = getMedia[media_id];\n        if ((users[msg.sender])== 1) revert();\n        if ((users[msg.sender] == 2) &&(msg.value!=md1.price_indi)) revert();\n        if ((users[msg.sender] == 3) &&(msg.value!=md1.price_comp)) revert();\n\n        if (bought[media_id][msg.sender]) revert();\n        address[] k = mybought[media_id];\n        k.push(msg.sender);\n        mybought[media_id] = k;\n        num_mybought[media_id] = num_mybought[media_id]+1;\n        (bought[media_id])[msg.sender] = true;\n        bytes32[] l = media_boughtby[msg.sender];\n        l.push(media_id);\n        media_boughtby[msg.sender] = l;\n        num_bought[msg.sender] +=1;\n    }\n    \n    function sendLink(address recipient,bytes32 media_id, bytes32 link) public{\n        md = getMedia[media_id];\n        if (msg.sender != md.owner) revert();\n        links[recipient][media_id] = link;\n        uint money;\n        if ((users[recipient]) == 2){\n            money = md.price_indi;\n        }\n        else if ((users[recipient])== 3){\n            money = md.price_comp;\n        }\n        for (uint i = 0; i < md.stakeholders.length;i++){\n            md.stakeholders[i].transfer(md.stakes[i]*money/100);\n        }\n        link_sent[media_id][recipient] = true;\n    }\n    \n}",
  "sourcePath": "/Users/sarishtwadhwa/Desktop/new_smartC/newDevelopment/contracts/MusicChain.sol",
  "compiler": {
    "name": "solc",
    "version": "0.4.21+commit.dfe3193c.Emscripten.clang"
  },
  "schemaVersion": "2.0.0",
  "updatedAt": "2018-04-18T23:12:11.884Z"
}